:100000000C945D000C9485000C9485000C94850084
:100010000C9485000C9485000C9485000C9485004C
:100020000C9485000C9485000C9485000C9485003C
:100030000C9485000C9485000C9485000C9485002C
:100040000C946D040C9485000C9426030C946203AC
:100050000C9485000C9485000C9485000C9485000C
:100060000C9485000C94850000000007000201003C
:100070000003040600000000000000000102040864
:100080001020408001020408102001020408102002
:10009000040404040404040402020202020203032E
:1000A0000303030300000000250028002B000000CC
:1000B0000000240027002A001D0411241FBECFEFDA
:1000C000D8E0DEBFCDBF11E0A0E0B1E0E0EEFAE0A5
:1000D00002C005900D92A031B107D9F711E0A0E15F
:1000E000B1E001C01D92A03CB107E1F710E0CAEBFE
:1000F000D0E004C02297FE010E946A05C83BD107E8
:10010000C9F70E947D020C942C050C94000040E875
:1001100055E260E070E080E191E00E949D0361E0C3
:1001200089E00E94560161E08AE00C945601CF9369
:10013000DF9380E191E00E948A021816190644F5C7
:1001400080E191E00E947A02C62F80E191E00E9456
:10015000B902D82F80E191E00E947A02D13689F469
:1001600077FD05C06F3F710509F024F405C060E01C
:1001700070E002C06FEF70E08C2FDF91CF910C9494
:10018000CB00D43629F48C2FDF91CF910C948E01C3
:10019000DF91CF9108951F93CF93DF93182FEB0139
:1001A00061E00E945601209711F460E004C0CF3F47
:1001B000D10539F461E0812FDF91CF911F910C942B
:1001C0008E01E12FF0E0E859FF4FE491E330B9F000
:1001D00028F4E13051F0E230B1F50CC0E63019F10D
:1001E000E73049F1E43079F514C084B5806884BD06
:1001F000C7BD2EC084B5806284BDC8BD29C08091B2
:100200008000806880938000D0938900C09388002C
:100210001FC080918000806280938000D0938B000B
:10022000C0938A0015C08091B00080688093B000B0
:10023000C093B3000DC08091B00080628093B00085
:10024000C093B40005C0C038D1050CF0B3CFADCF1A
:10025000DF91CF911F910895833069F028F48130A8
:10026000A1F0823011F514C08630B1F08730C1F0B2
:100270008430D9F404C0809180008F7703C08091CE
:1002800080008F7D80938000089584B58F7702C0B1
:1002900084B58F7D84BD08958091B0008F7703C0B1
:1002A0008091B0008F7D8093B0000895CF93DF934D
:1002B00090E0FC01E458FF4F4491FC01E057FF4FF0
:1002C0008491882341F190E0880F991FFC01E25549
:1002D000FF4F25913491D9018C559F4FFC01859199
:1002E0009491C82FD92F9FB7F8948C91611106C0B3
:1002F000409584238C938881842308C0623041F424
:10030000242F209582238C938881842B888302C09C
:10031000842B8C939FBFDF91CF9108950F931F93F0
:10032000CF93DF931F92CDB7DEB7282F30E0F901CE
:10033000E859FF4F8491F901E458FF4F1491F901F6
:10034000E057FF4F04910023D1F0882321F0698307
:100350000E942C016981E02FF0E0EE0FFF1FEC55A9
:10036000FF4F85919491DC019FB7F8948C916111B6
:1003700003C01095812301C0812B8C939FBF0F90E8
:10038000DF91CF911F910F9108950F931F93CF93FA
:10039000DF93EC010E94B704688779878A879B877F
:1003A000E881F9810084F185E02DCE0109959C0159
:1003B00097FF15C00E94B704088519852A853B85DB
:1003C000601B710B820B930B0C811D812E813F8171
:1003D000601771078207930718F32FEF3FEFC901EA
:1003E000DF91CF911F910F910895CF93DF93EC018F
:1003F000CE010E94C5019C0197FD0EC08D32910572
:1004000059F0C0970A9740F0E881F9810680F7819A
:10041000E02DCE010995ECCFC901DF91CF91089570
:10042000CF92DF92FF920F931F93CF93DF9300D071
:1004300000D0CDB7DEB76C01062F0E94F501FC019C
:1004400020E030E0A90197FD47C0F12C112707FDFE
:100450001095E017F107E9F0ED32F105C1F0CF0199
:10046000C0970A97B0F4AAE0B0E00E942F059B0164
:10047000AC01CF01AA2797FDA095BA2F280F391FED
:100480004A1F5B1F205331094109510902C0FF2453
:10049000F394D601ED91FC910680F781E02DC60121
:1004A00029833A834B835C830995C6010E94C50169
:1004B000FC01C09729813A814B815C810A9748F2FF
:1004C000E017F10731F2FF2039F050954095309553
:1004D00021953F4F4F4F5F4FB901CA010F900F90C9
:1004E0000F900F90DF91CF911F910F91FF90DF90B0
:1004F000CF90089561E00C9410020E94C9040E94FC
:100500008700C9E5D3E00E9497002097E1F30E949D
:100510005903F9CFFC0184859585FC01E05CFF4F10
:1005200020813181FC01EE5BFF4F80819181281B8E
:10053000390B2F733327C9010895FC0184859585F4
:10054000FC01E05CFF4F40815181FC01EE5BFF4FFD
:10055000208131814217530741F00190F081E02D55
:10056000E80FF91F208130E002C02FEF3FEFC901F3
:100570000895FC0184859585FC01E05CFF4F408176
:100580005181FC01EE5BFF4F2081318142175307FF
:1005900081F0A081B181A80FB91F8C912081318198
:1005A0002F5F3F4F2F73332731832083282F30E075
:1005B00002C02FEF3FEFC9010895FC0186859785A2
:1005C000FC01E05CFF4FDC01AE5BBF4F408151811D
:1005D0002D913C91119742175307C1F70895CF937E
:1005E000DF93FC0186859785DC01A05CBF4F2D91D0
:1005F0003C9111972F5F3F4F2F733327EC01CE5B58
:10060000DF4F4881598124173507D9F30D90BC91EC
:10061000A02DA80FB91F6C93A685B785A05CBF4F0E
:1006200011963C932E93A689B7892C9181E090E096
:10063000058C02C0880F991F0A94E2F7282B2C938F
:1006400081E090E0DF91CF91089508951F920F927D
:100650000FB60F9211242F933F934F938F939F9335
:10066000EF93FF934091C6008091B3019091B40144
:1006700001968F7399272091B5013091B6018217A9
:10068000930759F0E091B301F091B401ED58FE4F9A
:1006900040839093B4018093B301FF91EF919F91B8
:1006A0008F914F913F912F910F900FBE0F901F9000
:1006B000189580E191E00E948A02892B11F00C9438
:1006C000250308951F920F920FB60F9211242F93B6
:1006D0003F938F939F93EF93FF9320916F013091FE
:1006E000700180917101909172012817390731F4DE
:1006F0008091C1008F7D8093C10014C0E091710191
:10070000F0917201E15DFE4F208180917101909125
:10071000720101968F7399279093720180937101F2
:100720002093C600FF91EF919F918F913F912F9160
:100730000F900FBE0F901F901895CF92DF92EF92FF
:10074000FF92CF93DF93EC016A017B01411581EEAB
:10075000580761057105F9F0EC89FD8981E090E0A9
:100760000E8C02C0880F991F0A94E2F7808360E024
:1007700079E08DE390E0A70196010E943A052150AF
:100780003109410951095695479537952795211506
:1007900080E1380798F0EC89FD89108260E874E800
:1007A0008EE190E0A70196010E943A05215031099F
:1007B000410951095695479537952795E889F98953
:1007C0003083EA89FB892083EE89FF89408181E0BB
:1007D00090E09C010A8C02C0220F331F0A94E2F7BA
:1007E000422B4083EE89FF8940819C010B8C02C023
:1007F000220F331F0A94E2F7422B4083EE89FF89D0
:1008000040819C010C8C02C0220F331F0A94E2F736
:10081000422B4083EE89FF8920810D8C02C0880F16
:10082000991F0A94E2F7809582238083DF91CF910C
:10083000FF90EF90DF90CF900895109213011092E7
:10084000120188EE93E0A0E0B0E080931401909351
:100850001501A0931601B093170184E091E09093E5
:1008600011018093100183E791E090931D01809323
:100870001C018FE291E090931F0180931E0185EC93
:1008800090E0909321018093200184EC90E090937C
:1008900023018093220180EC90E0909325018093C6
:1008A000240181EC90E0909327018093260186EC4F
:1008B00090E0909329018093280184E080932A019D
:1008C00083E080932B0187E080932C0185E0809367
:1008D0002D0181E080932E0108951F920F920FB693
:1008E0000F9211242F933F938F939F93AF93BF93B6
:1008F0008091B7019091B801A091B901B091BA016E
:100900003091BF01232F2D5F2D3720F40196A11DBB
:10091000B11D05C0232F2A570296A11DB11D20939A
:10092000BF018093B7019093B801A093B901B09330
:10093000BA018091BB019091BC01A091BD01B09121
:10094000BE010196A11DB11D8093BB019093BC0116
:10095000A093BD01B093BE01BF91AF919F918F91C4
:100960003F912F910F900FBE0F901F9018950F93EE
:100970001F938FB7F8940091B7011091B80120919F
:10098000B9013091BA018FBFB801C9011F910F9110
:100990000895789484B5826084BD84B5816084BDF7
:1009A00085B5826085BD85B5816085BDEEE6F0E0E8
:1009B000808181608083E1E8F0E010828081826044
:1009C0008083808181608083E0E8F0E080818160C5
:1009D0008083E1EBF0E0808184608083E0EBF0E0F5
:1009E000808181608083EAE7F0E080818460808399
:1009F0008081826080838081816080838081806843
:100A000080831092C1000895CF92DF92EF92FF92FF
:100A10000F931F93CF93DF936C01EB017A01E60EE6
:100A2000F71E00E010E00BC06991D601ED91FC913A
:100A30000190F081E02DC6010995080F191FCE1510
:100A4000DF0591F7C801DF91CF911F910F91FF90C2
:100A5000EF90DF90CF900895F8940C946E050E946B
:100A60005C05A59F900DB49F900DA49F800D911DD6
:100A700011240895A1E21A2EAA1BBB1BFD010DC073
:100A8000AA1FBB1FEE1FFF1FA217B307E407F5073E
:100A900020F0A21BB30BE40BF50B661F771F881F1A
:100AA000991F1A9469F760957095809590959B01B0
:100AB000AC01BD01CF010895A29FB001B39FC00159
:100AC000A39F01D0B29F700D811D1124911D089527
:100AD000EE0FFF1F0590F491E02D0994F894FFCFDD
:100AE00000000000EF0204058A02B9029D02DD0247
:00000001FF
